{
    "contractName": "LibPart",
    "abi": [
        {
            "inputs": [],
            "name": "TYPE_HASH",
            "outputs": [
                {
                    "internalType": "bytes32",
                    "name": "",
                    "type": "bytes32"
                }
            ],
            "stateMutability": "view",
            "type": "function"
        }
    ],
    "bytecode": "60a6610038600b82828239805160001a607314602b57634e487b7160e01b600052600060045260246000fd5b30600052607381538281f3fe730000000000000000000000000000000000000000301460806040526004361060335760003560e01c806364d4c819146038575b600080fd5b605e7f397e04204c1e1a60ee8724b71f8244e10ab5f2e9009854d80f602bda21b59ebb81565b60405190815260200160405180910390f3fea2646970667358221220b8ba416bea8e2b18e56583c2e59805cfe1ff4ad289781e4dc0fa7e1326eda8e364736f6c634300080a0033",
    "sourcePath": "/Users/scarnes/SimpliX/SimpliNew/contracts/LibPart.sol",
    "compiler": {
        "name": "solc",
        "version": "0.8.10+commit.fc410830"
    },
    "functionHashes": {
        "TYPE_HASH()": "64d4c819"
    },
    "gasEstimates": {
        "creation": {
            "codeDepositCost": "33200",
            "executionCost": "118",
            "totalCost": "33318"
        },
        "external": {
            "TYPE_HASH()": "145"
        },
        "internal": {
            "hash(struct LibPart.Part memory)": "infinite"
        }
    }
}