{
    "contractName": "LibRoyalties2981",
    "abi": [
        {
            "inputs": [
                {
                    "internalType": "address",
                    "name": "to",
                    "type": "address"
                },
                {
                    "internalType": "uint256",
                    "name": "amount",
                    "type": "uint256"
                }
            ],
            "name": "calculateRoyalties",
            "outputs": [
                {
                    "components": [
                        {
                            "internalType": "address payable",
                            "name": "account",
                            "type": "address"
                        },
                        {
                            "internalType": "uint96",
                            "name": "value",
                            "type": "uint96"
                        }
                    ],
                    "internalType": "struct LibPart.Part[]",
                    "name": "",
                    "type": "tuple[]"
                }
            ],
            "stateMutability": "pure",
            "type": "function"
        }
    ],
    "bytecode": "6102db61003a600b82828239805160001a60731461002d57634e487b7160e01b600052600060045260246000fd5b30600052607381538281f3fe73000000000000000000000000000000000000000030146080604052600436106100355760003560e01c806375ef76341461003a575b600080fd5b61004d6100483660046101a2565b610063565b60405161005a91906101da565b60405180910390f35b6060808261007257905061019c565b6000620f4240610083856064610240565b61008d919061026d565b610098906064610240565b905061271081106100ef5760405162461bcd60e51b815260206004820152601960248201527f526f79616c7469657320323938312c207468616e203130302500000000000000604482015260640160405180910390fd5b60408051600180825281830190925290816020015b604080518082019091526000808252602082015281526020019060019003908161010457905050915084826000815181106101415761014161028f565b6020026020010151600001906001600160a01b031690816001600160a01b03168152505080826000815181106101795761017961028f565b6020908102919091018101516bffffffffffffffffffffffff9092169101525090505b92915050565b600080604083850312156101b557600080fd5b82356001600160a01b03811681146101cc57600080fd5b946020939093013593505050565b602080825282518282018190526000919060409081850190868401855b8281101561023357815180516001600160a01b031685528601516bffffffffffffffffffffffff168685015292840192908501906001016101f7565b5091979650505050505050565b600081600019048311821515161561026857634e487b7160e01b600052601160045260246000fd5b500290565b60008261028a57634e487b7160e01b600052601260045260246000fd5b500490565b634e487b7160e01b600052603260045260246000fdfea264697066735822122063fa78e8bbd0bc5c78594f38cc1eab1bdfa44f993359fe239adef5c7c056d48964736f6c634300080a0033",
    "sourcePath": "/Users/scarnes/SimpliX/SimpliNew/contracts/LibRoyalties2981.sol",
    "compiler": {
        "name": "solc",
        "version": "0.8.10+commit.fc410830"
    },
    "functionHashes": {
        "calculateRoyalties(address,uint256)": "75ef7634"
    },
    "gasEstimates": {
        "creation": {
            "codeDepositCost": "146200",
            "executionCost": "224",
            "totalCost": "146424"
        },
        "external": {
            "calculateRoyalties(address,uint256)": "infinite"
        }
    }
}