{
    "contractName": "NFT",
    "abi": [
        {
            "inputs": [
                {
                    "internalType": "address",
                    "name": "marketplaceAddress",
                    "type": "address"
                }
            ],
            "stateMutability": "nonpayable",
            "type": "constructor"
        },
        {
            "anonymous": false,
            "inputs": [
                {
                    "indexed": true,
                    "internalType": "address",
                    "name": "owner",
                    "type": "address"
                },
                {
                    "indexed": true,
                    "internalType": "address",
                    "name": "approved",
                    "type": "address"
                },
                {
                    "indexed": true,
                    "internalType": "uint256",
                    "name": "tokenId",
                    "type": "uint256"
                }
            ],
            "name": "Approval",
            "type": "event"
        },
        {
            "anonymous": false,
            "inputs": [
                {
                    "indexed": true,
                    "internalType": "address",
                    "name": "owner",
                    "type": "address"
                },
                {
                    "indexed": true,
                    "internalType": "address",
                    "name": "operator",
                    "type": "address"
                },
                {
                    "indexed": false,
                    "internalType": "bool",
                    "name": "approved",
                    "type": "bool"
                }
            ],
            "name": "ApprovalForAll",
            "type": "event"
        },
        {
            "anonymous": false,
            "inputs": [
                {
                    "indexed": true,
                    "internalType": "address",
                    "name": "from",
                    "type": "address"
                },
                {
                    "indexed": true,
                    "internalType": "address",
                    "name": "to",
                    "type": "address"
                },
                {
                    "indexed": true,
                    "internalType": "uint256",
                    "name": "tokenId",
                    "type": "uint256"
                }
            ],
            "name": "Transfer",
            "type": "event"
        },
        {
            "inputs": [
                {
                    "internalType": "address",
                    "name": "to",
                    "type": "address"
                },
                {
                    "internalType": "uint256",
                    "name": "tokenId",
                    "type": "uint256"
                }
            ],
            "name": "approve",
            "outputs": [],
            "stateMutability": "nonpayable",
            "type": "function"
        },
        {
            "inputs": [
                {
                    "internalType": "address",
                    "name": "owner",
                    "type": "address"
                }
            ],
            "name": "balanceOf",
            "outputs": [
                {
                    "internalType": "uint256",
                    "name": "",
                    "type": "uint256"
                }
            ],
            "stateMutability": "view",
            "type": "function"
        },
        {
            "inputs": [
                {
                    "internalType": "string",
                    "name": "nftTokenURl",
                    "type": "string"
                }
            ],
            "name": "createNFtToken",
            "outputs": [
                {
                    "internalType": "uint256",
                    "name": "",
                    "type": "uint256"
                }
            ],
            "stateMutability": "nonpayable",
            "type": "function"
        },
        {
            "inputs": [
                {
                    "internalType": "uint256",
                    "name": "tokenId",
                    "type": "uint256"
                }
            ],
            "name": "getApproved",
            "outputs": [
                {
                    "internalType": "address",
                    "name": "",
                    "type": "address"
                }
            ],
            "stateMutability": "view",
            "type": "function"
        },
        {
            "inputs": [
                {
                    "internalType": "address",
                    "name": "owner",
                    "type": "address"
                },
                {
                    "internalType": "address",
                    "name": "operator",
                    "type": "address"
                }
            ],
            "name": "isApprovedForAll",
            "outputs": [
                {
                    "internalType": "bool",
                    "name": "",
                    "type": "bool"
                }
            ],
            "stateMutability": "view",
            "type": "function"
        },
        {
            "inputs": [],
            "name": "name",
            "outputs": [
                {
                    "internalType": "string",
                    "name": "",
                    "type": "string"
                }
            ],
            "stateMutability": "view",
            "type": "function"
        },
        {
            "inputs": [
                {
                    "internalType": "uint256",
                    "name": "tokenId",
                    "type": "uint256"
                }
            ],
            "name": "ownerOf",
            "outputs": [
                {
                    "internalType": "address",
                    "name": "",
                    "type": "address"
                }
            ],
            "stateMutability": "view",
            "type": "function"
        },
        {
            "inputs": [
                {
                    "internalType": "address",
                    "name": "from",
                    "type": "address"
                },
                {
                    "internalType": "address",
                    "name": "to",
                    "type": "address"
                },
                {
                    "internalType": "uint256",
                    "name": "tokenId",
                    "type": "uint256"
                }
            ],
            "name": "safeTransferFrom",
            "outputs": [],
            "stateMutability": "nonpayable",
            "type": "function"
        },
        {
            "inputs": [
                {
                    "internalType": "address",
                    "name": "from",
                    "type": "address"
                },
                {
                    "internalType": "address",
                    "name": "to",
                    "type": "address"
                },
                {
                    "internalType": "uint256",
                    "name": "tokenId",
                    "type": "uint256"
                },
                {
                    "internalType": "bytes",
                    "name": "_data",
                    "type": "bytes"
                }
            ],
            "name": "safeTransferFrom",
            "outputs": [],
            "stateMutability": "nonpayable",
            "type": "function"
        },
        {
            "inputs": [
                {
                    "internalType": "address",
                    "name": "operator",
                    "type": "address"
                },
                {
                    "internalType": "bool",
                    "name": "approved",
                    "type": "bool"
                }
            ],
            "name": "setApprovalForAll",
            "outputs": [],
            "stateMutability": "nonpayable",
            "type": "function"
        },
        {
            "inputs": [
                {
                    "internalType": "bytes4",
                    "name": "interfaceId",
                    "type": "bytes4"
                }
            ],
            "name": "supportsInterface",
            "outputs": [
                {
                    "internalType": "bool",
                    "name": "",
                    "type": "bool"
                }
            ],
            "stateMutability": "view",
            "type": "function"
        },
        {
            "inputs": [],
            "name": "symbol",
            "outputs": [
                {
                    "internalType": "string",
                    "name": "",
                    "type": "string"
                }
            ],
            "stateMutability": "view",
            "type": "function"
        },
        {
            "inputs": [
                {
                    "internalType": "uint256",
                    "name": "tokenId",
                    "type": "uint256"
                }
            ],
            "name": "tokenURI",
            "outputs": [
                {
                    "internalType": "string",
                    "name": "",
                    "type": "string"
                }
            ],
            "stateMutability": "view",
            "type": "function"
        },
        {
            "inputs": [
                {
                    "internalType": "address",
                    "name": "from",
                    "type": "address"
                },
                {
                    "internalType": "address",
                    "name": "to",
                    "type": "address"
                },
                {
                    "internalType": "uint256",
                    "name": "tokenId",
                    "type": "uint256"
                }
            ],
            "name": "transferFrom",
            "outputs": [],
            "stateMutability": "nonpayable",
            "type": "function"
        }
    ],
    "bytecode": "60806040523480156200001157600080fd5b50604051620018c4380380620018c4833981016040819052620000349162000164565b604080518082018252600681526553696d706c6960d01b60208083019182528351808501909452600484526314d3541360e21b9084015281519192916200007e91600091620000be565b50805162000094906001906020840190620000be565b5050600880546001600160a01b0319166001600160a01b03939093169290921790915550620001d3565b828054620000cc9062000196565b90600052602060002090601f016020900481019282620000f057600085556200013b565b82601f106200010b57805160ff19168380011785556200013b565b828001600101855582156200013b579182015b828111156200013b5782518255916020019190600101906200011e565b50620001499291506200014d565b5090565b5b808211156200014957600081556001016200014e565b6000602082840312156200017757600080fd5b81516001600160a01b03811681146200018f57600080fd5b9392505050565b600181811c90821680620001ab57607f821691505b60208210811415620001cd57634e487b7160e01b600052602260045260246000fd5b50919050565b6116e180620001e36000396000f3fe608060405234801561001057600080fd5b50600436106100ea5760003560e01c806370a082311161008c578063b88d4fde11610066578063b88d4fde146101e1578063c87b56dd146101f4578063cb18ee7b14610207578063e985e9c51461021a57600080fd5b806370a08231146101a557806395d89b41146101c6578063a22cb465146101ce57600080fd5b8063095ea7b3116100c8578063095ea7b31461015757806323b872dd1461016c57806342842e0e1461017f5780636352211e1461019257600080fd5b806301ffc9a7146100ef57806306fdde0314610117578063081812fc1461012c575b600080fd5b6101026100fd366004611192565b610256565b60405190151581526020015b60405180910390f35b61011f6102a8565b60405161010e9190611207565b61013f61013a36600461121a565b61033a565b6040516001600160a01b03909116815260200161010e565b61016a61016536600461124f565b6103c7565b005b61016a61017a366004611279565b6104dd565b61016a61018d366004611279565b61050e565b61013f6101a036600461121a565b610529565b6101b86101b33660046112b5565b6105a0565b60405190815260200161010e565b61011f610627565b61016a6101dc3660046112d0565b610636565b61016a6101ef366004611398565b610645565b61011f61020236600461121a565b61067d565b6101b8610215366004611414565b6107f4565b61010261022836600461145d565b6001600160a01b03918216600090815260056020908152604080832093909416825291909152205460ff1690565b60006001600160e01b031982166380ac58cd60e01b148061028757506001600160e01b03198216635b5e139f60e01b145b806102a257506301ffc9a760e01b6001600160e01b03198316145b92915050565b6060600080546102b790611490565b80601f01602080910402602001604051908101604052809291908181526020018280546102e390611490565b80156103305780601f1061030557610100808354040283529160200191610330565b820191906000526020600020905b81548152906001019060200180831161031357829003601f168201915b5050505050905090565b60006103458261083c565b6103ab5760405162461bcd60e51b815260206004820152602c60248201527f4552433732313a20617070726f76656420717565727920666f72206e6f6e657860448201526b34b9ba32b73a103a37b5b2b760a11b60648201526084015b60405180910390fd5b506000908152600460205260409020546001600160a01b031690565b60006103d282610529565b9050806001600160a01b0316836001600160a01b031614156104405760405162461bcd60e51b815260206004820152602160248201527f4552433732313a20617070726f76616c20746f2063757272656e74206f776e656044820152603960f91b60648201526084016103a2565b336001600160a01b038216148061045c575061045c8133610228565b6104ce5760405162461bcd60e51b815260206004820152603860248201527f4552433732313a20617070726f76652063616c6c6572206973206e6f74206f7760448201527f6e6572206e6f7220617070726f76656420666f7220616c6c000000000000000060648201526084016103a2565b6104d88383610859565b505050565b6104e733826108c7565b6105035760405162461bcd60e51b81526004016103a2906114cb565b6104d88383836109b0565b6104d883838360405180602001604052806000815250610645565b6000818152600260205260408120546001600160a01b0316806102a25760405162461bcd60e51b815260206004820152602960248201527f4552433732313a206f776e657220717565727920666f72206e6f6e657869737460448201526832b73a103a37b5b2b760b91b60648201526084016103a2565b60006001600160a01b03821661060b5760405162461bcd60e51b815260206004820152602a60248201527f4552433732313a2062616c616e636520717565727920666f7220746865207a65604482015269726f206164647265737360b01b60648201526084016103a2565b506001600160a01b031660009081526003602052604090205490565b6060600180546102b790611490565b610641338383610b4c565b5050565b61064f33836108c7565b61066b5760405162461bcd60e51b81526004016103a2906114cb565b61067784848484610c1b565b50505050565b60606106888261083c565b6106ee5760405162461bcd60e51b815260206004820152603160248201527f45524337323155524953746f726167653a2055524920717565727920666f72206044820152703737b732bc34b9ba32b73a103a37b5b2b760791b60648201526084016103a2565b6000828152600660205260408120805461070790611490565b80601f016020809104026020016040519081016040528092919081815260200182805461073390611490565b80156107805780601f1061075557610100808354040283529160200191610780565b820191906000526020600020905b81548152906001019060200180831161076357829003601f168201915b50505050509050600061079e60408051602081019091526000815290565b90508051600014156107b1575092915050565b8151156107e35780826040516020016107cb92919061151c565b60405160208183030381529060405292505050919050565b6107ec84610c4e565b949350505050565b6000610804600780546001019055565b600061080f60075490565b905061081b3382610d26565b6108258184610e59565b6008546102a2906001600160a01b03166001610636565b6000908152600260205260409020546001600160a01b0316151590565b600081815260046020526040902080546001600160a01b0319166001600160a01b038416908117909155819061088e82610529565b6001600160a01b03167f8c5be1e5ebec7d5bd14f71427d1e84f3dd0314c0f7b2291e5b200ac8c7c3b92560405160405180910390a45050565b60006108d28261083c565b6109335760405162461bcd60e51b815260206004820152602c60248201527f4552433732313a206f70657261746f7220717565727920666f72206e6f6e657860448201526b34b9ba32b73a103a37b5b2b760a11b60648201526084016103a2565b600061093e83610529565b9050806001600160a01b0316846001600160a01b0316148061098557506001600160a01b0380821660009081526005602090815260408083209388168352929052205460ff165b806107ec5750836001600160a01b031661099e8461033a565b6001600160a01b031614949350505050565b826001600160a01b03166109c382610529565b6001600160a01b031614610a275760405162461bcd60e51b815260206004820152602560248201527f4552433732313a207472616e736665722066726f6d20696e636f72726563742060448201526437bbb732b960d91b60648201526084016103a2565b6001600160a01b038216610a895760405162461bcd60e51b8152602060048201526024808201527f4552433732313a207472616e7366657220746f20746865207a65726f206164646044820152637265737360e01b60648201526084016103a2565b610a94600082610859565b6001600160a01b0383166000908152600360205260408120805460019290610abd908490611561565b90915550506001600160a01b0382166000908152600360205260408120805460019290610aeb908490611578565b909155505060008181526002602052604080822080546001600160a01b0319166001600160a01b0386811691821790925591518493918716917fddf252ad1be2c89b69c2b068fc378daa952ba7f163c4a11628f55a4df523b3ef91a4505050565b816001600160a01b0316836001600160a01b03161415610bae5760405162461bcd60e51b815260206004820152601960248201527f4552433732313a20617070726f766520746f2063616c6c65720000000000000060448201526064016103a2565b6001600160a01b03838116600081815260056020908152604080832094871680845294825291829020805460ff191686151590811790915591519182527f17307eab39ab6107e8899845ad3d59bd9653f200f220920489ca2b5937696c31910160405180910390a3505050565b610c268484846109b0565b610c3284848484610ee4565b6106775760405162461bcd60e51b81526004016103a290611590565b6060610c598261083c565b610cbd5760405162461bcd60e51b815260206004820152602f60248201527f4552433732314d657461646174613a2055524920717565727920666f72206e6f60448201526e3732bc34b9ba32b73a103a37b5b2b760891b60648201526084016103a2565b6000610cd460408051602081019091526000815290565b90506000815111610cf45760405180602001604052806000815250610d1f565b80610cfe84610fe2565b604051602001610d0f92919061151c565b6040516020818303038152906040525b9392505050565b6001600160a01b038216610d7c5760405162461bcd60e51b815260206004820181905260248201527f4552433732313a206d696e7420746f20746865207a65726f206164647265737360448201526064016103a2565b610d858161083c565b15610dd25760405162461bcd60e51b815260206004820152601c60248201527f4552433732313a20746f6b656e20616c7265616479206d696e7465640000000060448201526064016103a2565b6001600160a01b0382166000908152600360205260408120805460019290610dfb908490611578565b909155505060008181526002602052604080822080546001600160a01b0319166001600160a01b03861690811790915590518392907fddf252ad1be2c89b69c2b068fc378daa952ba7f163c4a11628f55a4df523b3ef908290a45050565b610e628261083c565b610ec55760405162461bcd60e51b815260206004820152602e60248201527f45524337323155524953746f726167653a2055524920736574206f66206e6f6e60448201526d32bc34b9ba32b73a103a37b5b2b760911b60648201526084016103a2565b600082815260066020908152604090912082516104d8928401906110e0565b60006001600160a01b0384163b15610fd757604051630a85bd0160e11b81526001600160a01b0385169063150b7a0290610f289033908990889088906004016115e2565b6020604051808303816000875af1925050508015610f63575060408051601f3d908101601f19168201909252610f609181019061161f565b60015b610fbd573d808015610f91576040519150601f19603f3d011682016040523d82523d6000602084013e610f96565b606091505b508051610fb55760405162461bcd60e51b81526004016103a290611590565b805181602001fd5b6001600160e01b031916630a85bd0160e11b1490506107ec565b506001949350505050565b6060816110065750506040805180820190915260018152600360fc1b602082015290565b8160005b8115611030578061101a8161163c565b91506110299050600a8361166d565b915061100a565b60008167ffffffffffffffff81111561104b5761104b61130c565b6040519080825280601f01601f191660200182016040528015611075576020820181803683370190505b5090505b84156107ec5761108a600183611561565b9150611097600a86611681565b6110a2906030611578565b60f81b8183815181106110b7576110b7611695565b60200101906001600160f81b031916908160001a9053506110d9600a8661166d565b9450611079565b8280546110ec90611490565b90600052602060002090601f01602090048101928261110e5760008555611154565b82601f1061112757805160ff1916838001178555611154565b82800160010185558215611154579182015b82811115611154578251825591602001919060010190611139565b50611160929150611164565b5090565b5b808211156111605760008155600101611165565b6001600160e01b03198116811461118f57600080fd5b50565b6000602082840312156111a457600080fd5b8135610d1f81611179565b60005b838110156111ca5781810151838201526020016111b2565b838111156106775750506000910152565b600081518084526111f38160208601602086016111af565b601f01601f19169290920160200192915050565b602081526000610d1f60208301846111db565b60006020828403121561122c57600080fd5b5035919050565b80356001600160a01b038116811461124a57600080fd5b919050565b6000806040838503121561126257600080fd5b61126b83611233565b946020939093013593505050565b60008060006060848603121561128e57600080fd5b61129784611233565b92506112a560208501611233565b9150604084013590509250925092565b6000602082840312156112c757600080fd5b610d1f82611233565b600080604083850312156112e357600080fd5b6112ec83611233565b91506020830135801515811461130157600080fd5b809150509250929050565b634e487b7160e01b600052604160045260246000fd5b600067ffffffffffffffff8084111561133d5761133d61130c565b604051601f8501601f19908116603f011681019082821181831017156113655761136561130c565b8160405280935085815286868601111561137e57600080fd5b858560208301376000602087830101525050509392505050565b600080600080608085870312156113ae57600080fd5b6113b785611233565b93506113c560208601611233565b925060408501359150606085013567ffffffffffffffff8111156113e857600080fd5b8501601f810187136113f957600080fd5b61140887823560208401611322565b91505092959194509250565b60006020828403121561142657600080fd5b813567ffffffffffffffff81111561143d57600080fd5b8201601f8101841361144e57600080fd5b6107ec84823560208401611322565b6000806040838503121561147057600080fd5b61147983611233565b915061148760208401611233565b90509250929050565b600181811c908216806114a457607f821691505b602082108114156114c557634e487b7160e01b600052602260045260246000fd5b50919050565b60208082526031908201527f4552433732313a207472616e736665722063616c6c6572206973206e6f74206f6040820152701ddb995c881b9bdc88185c1c1c9bdd9959607a1b606082015260800190565b6000835161152e8184602088016111af565b8351908301906115428183602088016111af565b01949350505050565b634e487b7160e01b600052601160045260246000fd5b6000828210156115735761157361154b565b500390565b6000821982111561158b5761158b61154b565b500190565b60208082526032908201527f4552433732313a207472616e7366657220746f206e6f6e20455243373231526560408201527131b2b4bb32b91034b6b83632b6b2b73a32b960711b606082015260800190565b6001600160a01b0385811682528416602082015260408101839052608060608201819052600090611615908301846111db565b9695505050505050565b60006020828403121561163157600080fd5b8151610d1f81611179565b60006000198214156116505761165061154b565b5060010190565b634e487b7160e01b600052601260045260246000fd5b60008261167c5761167c611657565b500490565b60008261169057611690611657565b500690565b634e487b7160e01b600052603260045260246000fdfea2646970667358221220e44bf31c4b1c258cbd559142ee21af8b08bff14aceb520e605e790d167237d7264736f6c634300080a0033",
    "sourcePath": "/Users/scarnes/SimpliX/SimpliNew/contracts/NFT.sol",
    "compiler": {
        "name": "solc",
        "version": "0.8.10+commit.fc410830"
    },
    "functionHashes": {
        "approve(address,uint256)": "095ea7b3",
        "balanceOf(address)": "70a08231",
        "createNFtToken(string)": "cb18ee7b",
        "getApproved(uint256)": "081812fc",
        "isApprovedForAll(address,address)": "e985e9c5",
        "name()": "06fdde03",
        "ownerOf(uint256)": "6352211e",
        "safeTransferFrom(address,address,uint256)": "42842e0e",
        "safeTransferFrom(address,address,uint256,bytes)": "b88d4fde",
        "setApprovalForAll(address,bool)": "a22cb465",
        "supportsInterface(bytes4)": "01ffc9a7",
        "symbol()": "95d89b41",
        "tokenURI(uint256)": "c87b56dd",
        "transferFrom(address,address,uint256)": "23b872dd"
    },
    "gasEstimates": {
        "creation": {
            "codeDepositCost": "1171400",
            "executionCost": "infinite",
            "totalCost": "infinite"
        },
        "external": {
            "approve(address,uint256)": "infinite",
            "balanceOf(address)": "2612",
            "createNFtToken(string)": "infinite",
            "getApproved(uint256)": "4799",
            "isApprovedForAll(address,address)": "infinite",
            "name()": "infinite",
            "ownerOf(uint256)": "2645",
            "safeTransferFrom(address,address,uint256)": "infinite",
            "safeTransferFrom(address,address,uint256,bytes)": "infinite",
            "setApprovalForAll(address,bool)": "26753",
            "supportsInterface(bytes4)": "534",
            "symbol()": "infinite",
            "tokenURI(uint256)": "infinite",
            "transferFrom(address,address,uint256)": "infinite"
        }
    }
}