{
    "contractName": "NFTMarketPlace",
    "abi": [
        {
            "inputs": [],
            "stateMutability": "nonpayable",
            "type": "constructor"
        },
        {
            "anonymous": false,
            "inputs": [
                {
                    "indexed": true,
                    "internalType": "address",
                    "name": "nftContract",
                    "type": "address"
                },
                {
                    "indexed": true,
                    "internalType": "uint256",
                    "name": "id",
                    "type": "uint256"
                },
                {
                    "indexed": false,
                    "internalType": "uint256",
                    "name": "tokenId",
                    "type": "uint256"
                },
                {
                    "indexed": false,
                    "internalType": "address",
                    "name": "owner",
                    "type": "address"
                },
                {
                    "indexed": false,
                    "internalType": "address",
                    "name": "seller",
                    "type": "address"
                },
                {
                    "indexed": false,
                    "internalType": "uint256",
                    "name": "price",
                    "type": "uint256"
                },
                {
                    "indexed": false,
                    "internalType": "bool",
                    "name": "sold",
                    "type": "bool"
                }
            ],
            "name": "NftMerketItemCreated",
            "type": "event"
        },
        {
            "anonymous": false,
            "inputs": [
                {
                    "indexed": false,
                    "internalType": "uint256",
                    "name": "tokenId",
                    "type": "uint256"
                },
                {
                    "components": [
                        {
                            "internalType": "address payable",
                            "name": "account",
                            "type": "address"
                        },
                        {
                            "internalType": "uint96",
                            "name": "value",
                            "type": "uint96"
                        }
                    ],
                    "indexed": false,
                    "internalType": "struct LibPart.Part[]",
                    "name": "royalties",
                    "type": "tuple[]"
                }
            ],
            "name": "RoyaltiesSet",
            "type": "event"
        },
        {
            "inputs": [
                {
                    "internalType": "address",
                    "name": "nftContract",
                    "type": "address"
                },
                {
                    "internalType": "uint256",
                    "name": "tokenId",
                    "type": "uint256"
                },
                {
                    "internalType": "uint256",
                    "name": "price",
                    "type": "uint256"
                }
            ],
            "name": "createItemForSale",
            "outputs": [],
            "stateMutability": "payable",
            "type": "function"
        },
        {
            "inputs": [
                {
                    "internalType": "address",
                    "name": "nftContract",
                    "type": "address"
                },
                {
                    "internalType": "uint256",
                    "name": "nftItemId",
                    "type": "uint256"
                }
            ],
            "name": "createMarketForSale",
            "outputs": [],
            "stateMutability": "payable",
            "type": "function"
        },
        {
            "inputs": [],
            "name": "getAllUnsoldItems",
            "outputs": [
                {
                    "components": [
                        {
                            "internalType": "address",
                            "name": "nftContract",
                            "type": "address"
                        },
                        {
                            "internalType": "uint256",
                            "name": "id",
                            "type": "uint256"
                        },
                        {
                            "internalType": "uint256",
                            "name": "tokenId",
                            "type": "uint256"
                        },
                        {
                            "internalType": "address payable",
                            "name": "owner",
                            "type": "address"
                        },
                        {
                            "internalType": "address payable",
                            "name": "seller",
                            "type": "address"
                        },
                        {
                            "internalType": "uint256",
                            "name": "price",
                            "type": "uint256"
                        },
                        {
                            "internalType": "bool",
                            "name": "sold",
                            "type": "bool"
                        }
                    ],
                    "internalType": "struct NFTMarketPlace.NftMerketItem[]",
                    "name": "",
                    "type": "tuple[]"
                }
            ],
            "stateMutability": "view",
            "type": "function"
        },
        {
            "inputs": [],
            "name": "getMyItemCreated",
            "outputs": [
                {
                    "components": [
                        {
                            "internalType": "address",
                            "name": "nftContract",
                            "type": "address"
                        },
                        {
                            "internalType": "uint256",
                            "name": "id",
                            "type": "uint256"
                        },
                        {
                            "internalType": "uint256",
                            "name": "tokenId",
                            "type": "uint256"
                        },
                        {
                            "internalType": "address payable",
                            "name": "owner",
                            "type": "address"
                        },
                        {
                            "internalType": "address payable",
                            "name": "seller",
                            "type": "address"
                        },
                        {
                            "internalType": "uint256",
                            "name": "price",
                            "type": "uint256"
                        },
                        {
                            "internalType": "bool",
                            "name": "sold",
                            "type": "bool"
                        }
                    ],
                    "internalType": "struct NFTMarketPlace.NftMerketItem[]",
                    "name": "",
                    "type": "tuple[]"
                }
            ],
            "stateMutability": "view",
            "type": "function"
        },
        {
            "inputs": [],
            "name": "getMyNFTPurchased",
            "outputs": [
                {
                    "components": [
                        {
                            "internalType": "address",
                            "name": "nftContract",
                            "type": "address"
                        },
                        {
                            "internalType": "uint256",
                            "name": "id",
                            "type": "uint256"
                        },
                        {
                            "internalType": "uint256",
                            "name": "tokenId",
                            "type": "uint256"
                        },
                        {
                            "internalType": "address payable",
                            "name": "owner",
                            "type": "address"
                        },
                        {
                            "internalType": "address payable",
                            "name": "seller",
                            "type": "address"
                        },
                        {
                            "internalType": "uint256",
                            "name": "price",
                            "type": "uint256"
                        },
                        {
                            "internalType": "bool",
                            "name": "sold",
                            "type": "bool"
                        }
                    ],
                    "internalType": "struct NFTMarketPlace.NftMerketItem[]",
                    "name": "",
                    "type": "tuple[]"
                }
            ],
            "stateMutability": "view",
            "type": "function"
        },
        {
            "inputs": [
                {
                    "internalType": "uint256",
                    "name": "id",
                    "type": "uint256"
                }
            ],
            "name": "getRaribleV2Royalties",
            "outputs": [
                {
                    "components": [
                        {
                            "internalType": "address payable",
                            "name": "account",
                            "type": "address"
                        },
                        {
                            "internalType": "uint96",
                            "name": "value",
                            "type": "uint96"
                        }
                    ],
                    "internalType": "struct LibPart.Part[]",
                    "name": "",
                    "type": "tuple[]"
                }
            ],
            "stateMutability": "view",
            "type": "function"
        },
        {
            "inputs": [],
            "name": "gettheMarketFees",
            "outputs": [
                {
                    "internalType": "uint256",
                    "name": "",
                    "type": "uint256"
                }
            ],
            "stateMutability": "view",
            "type": "function"
        },
        {
            "inputs": [
                {
                    "internalType": "uint256",
                    "name": "",
                    "type": "uint256"
                },
                {
                    "internalType": "uint256",
                    "name": "",
                    "type": "uint256"
                }
            ],
            "name": "royalties",
            "outputs": [
                {
                    "internalType": "address payable",
                    "name": "account",
                    "type": "address"
                },
                {
                    "internalType": "uint96",
                    "name": "value",
                    "type": "uint96"
                }
            ],
            "stateMutability": "view",
            "type": "function"
        },
        {
            "inputs": [
                {
                    "internalType": "uint256",
                    "name": "_tokenId",
                    "type": "uint256"
                },
                {
                    "internalType": "uint256",
                    "name": "_salePrice",
                    "type": "uint256"
                }
            ],
            "name": "royaltyInfo",
            "outputs": [
                {
                    "internalType": "address",
                    "name": "receiver",
                    "type": "address"
                },
                {
                    "internalType": "uint256",
                    "name": "royaltyAmount",
                    "type": "uint256"
                }
            ],
            "stateMutability": "view",
            "type": "function"
        },
        {
            "inputs": [
                {
                    "internalType": "uint256",
                    "name": "_tokenId",
                    "type": "uint256"
                },
                {
                    "internalType": "address payable",
                    "name": "_royaltiesReceipientAddress",
                    "type": "address"
                },
                {
                    "internalType": "uint96",
                    "name": "_percentageBasisPoints",
                    "type": "uint96"
                }
            ],
            "name": "setRoyalties",
            "outputs": [],
            "stateMutability": "nonpayable",
            "type": "function"
        },
        {
            "inputs": [
                {
                    "internalType": "bytes4",
                    "name": "interfaceId",
                    "type": "bytes4"
                }
            ],
            "name": "supportsInterface",
            "outputs": [
                {
                    "internalType": "bool",
                    "name": "",
                    "type": "bool"
                }
            ],
            "stateMutability": "view",
            "type": "function"
        }
    ],
    "bytecode": "6080604052662386f26fc1000060025534801561001b57600080fd5b506001600055600380546001600160a01b031916331790556114ca806100426000396000f3fe60806040526004361061009c5760003560e01c806357e9b6cc1161006457806357e9b6cc1461016e5780638924af74146101815780639e31e655146101c8578063bca52442146101dd578063c7a5bc4e146101fb578063cad96cca1461020e57600080fd5b806301ffc9a7146100a1578063143094db146100d657806325135cbf146100f85780632a55205a1461011a578063446269e614610159575b600080fd5b3480156100ad57600080fd5b506100c16100bc36600461113d565b61023b565b60405190151581526020015b60405180910390f35b3480156100e257600080fd5b506100f66100f1366004611186565b61028e565b005b34801561010457600080fd5b5061010d610378565b6040516100cd91906111d4565b34801561012657600080fd5b5061013a610135366004611268565b610504565b604080516001600160a01b0390931683526020830191909152016100cd565b34801561016557600080fd5b5061010d61060a565b6100f661017c36600461128a565b6107d4565b34801561018d57600080fd5b506101a161019c366004611268565b610997565b604080516001600160a01b0390931683526001600160601b039091166020830152016100cd565b3480156101d457600080fd5b5061010d6109e0565b3480156101e957600080fd5b506002546040519081526020016100cd565b6100f66102093660046112b6565b610baa565b34801561021a57600080fd5b5061022e6102293660046112eb565b610ead565b6040516100cd919061135c565b60006001600160e01b0319821663656cb66560e11b141561025e57506001919050565b6001600160e01b0319821663152a902d60e11b141561027f57506001919050565b6102888261023b565b92915050565b600260005414156102ba5760405162461bcd60e51b81526004016102b19061136f565b60405180910390fd5b6002600090815560408051600180825281830190925290816020015b60408051808201909152600080825260208201528152602001906001900390816102d65790505090508181600081518110610313576103136113bc565b6020026020010151602001906001600160601b031690816001600160601b031681525050828160008151811061034b5761034b6113bc565b60209081029190910101516001600160a01b03909116905261036d8482610f3c565b505060016000555050565b6060600061038560045490565b9050600061039260055490565b60045461039f91906113e8565b90506000808267ffffffffffffffff8111156103bd576103bd6113a6565b6040519080825280602002602001820160405280156103f657816020015b6103e3611101565b8152602001906001900390816103db5790505b50905060005b848110156104fb5760006006816104148460016113ff565b81526020810191909152604001600020600301546001600160a01b031614156104e95760006104448260016113ff565b600081815260066020818152604092839020835160e08101855281546001600160a01b03908116825260018301549382019390935260028201549481019490945260038101548216606085015260048101549091166080840152600581015460a08401529081015460ff16151560c08301528551929350918590879081106104ce576104ce6113bc565b60209081029190910101526104e46001866113ff565b945050505b806104f381611417565b9150506103fc565b50949350505050565b6000828152600160209081526040808320805482518185028101850190935280835284938493929190849084015b8282101561058157600084815260209081902060408051808201909152908401546001600160a01b0381168252600160a01b90046001600160601b031681830152825260019092019101610532565b5050505090506000815111156105fa57806000815181106105a4576105a46113bc565b602002602001015160000151612710826000815181106105c6576105c66113bc565b6020026020010151602001516001600160601b0316866105e69190611432565b6105f09190611451565b9250925050610603565b60008092509250505b9250929050565b6060600061061760045490565b905060008060005b8381101561067a5733600660006106378460016113ff565b81526020810191909152604001600020600301546001600160a01b03161415610668576106656001846113ff565b92505b8061067281611417565b91505061061f565b5060008267ffffffffffffffff811115610696576106966113a6565b6040519080825280602002602001820160405280156106cf57816020015b6106bc611101565b8152602001906001900390816106b45790505b50905060005b848110156104fb5733600660006106ed8460016113ff565b81526020810191909152604001600020600301546001600160a01b031614156107c257600061071d8260016113ff565b600081815260066020818152604092839020835160e08101855281546001600160a01b03908116825260018301549382019390935260028201549481019490945260038101548216606085015260048101549091166080840152600581015460a08401529081015460ff16151560c08301528551929350918590879081106107a7576107a76113bc565b60209081029190910101526107bd6001866113ff565b945050505b806107cc81611417565b9150506106d5565b600260005414156107f75760405162461bcd60e51b81526004016102b19061136f565b6002600081815582815260066020526040902060058101549101543482146108615760405162461bcd60e51b815260206004820152601c60248201527f73686f756c642062757920746865207072696365206f66206974656d0000000060448201526064016102b1565b6000838152600660205260408082206004015490516001600160a01b03909116913480156108fc02929091818181858888f193505050501580156108a9573d6000803e3d6000fd5b506040516323b872dd60e01b8152306004820152336024820152604481018290526001600160a01b038516906323b872dd90606401600060405180830381600087803b1580156108f857600080fd5b505af115801561090c573d6000803e3d6000fd5b50505060008481526006602081905260409091206003810180546001600160a01b0319163317905501805460ff191660011790555061094f600580546001019055565b6003546002546040516001600160a01b039092169181156108fc0291906000818181858888f1935050505015801561098b573d6000803e3d6000fd5b50506001600055505050565b600160205281600052604060002081815481106109b357600080fd5b6000918252602090912001546001600160a01b0381169250600160a01b90046001600160601b0316905082565b606060006109ed60045490565b905060008060005b83811015610a50573360066000610a0d8460016113ff565b81526020810191909152604001600020600401546001600160a01b03161415610a3e57610a3b6001846113ff565b92505b80610a4881611417565b9150506109f5565b5060008267ffffffffffffffff811115610a6c57610a6c6113a6565b604051908082528060200260200182016040528015610aa557816020015b610a92611101565b815260200190600190039081610a8a5790505b50905060005b848110156104fb573360066000610ac38460016113ff565b81526020810191909152604001600020600401546001600160a01b03161415610b98576000610af38260016113ff565b600081815260066020818152604092839020835160e08101855281546001600160a01b03908116825260018301549382019390935260028201549481019490945260038101548216606085015260048101549091166080840152600581015460a08401529081015460ff16151560c0830152855192935091859087908110610b7d57610b7d6113bc565b6020908102919091010152610b936001866113ff565b945050505b80610ba281611417565b915050610aab565b60026000541415610bcd5760405162461bcd60e51b81526004016102b19061136f565b600260005580610c1f5760405162461bcd60e51b815260206004820152601a60248201527f50726963652073686f756c64206265206d6f72655468616e203100000000000060448201526064016102b1565b60008211610c6f5760405162461bcd60e51b815260206004820152601d60248201527f746f6b656e2049642073686f756c64206265206d6f72655468616e203100000060448201526064016102b1565b6002543414610cc05760405162461bcd60e51b815260206004820152601e60248201527f546865204d61726b6574204665657320697320302e303130204574686572000060448201526064016102b1565b6001600160a01b038316610d165760405162461bcd60e51b815260206004820152601f60248201527f616464726573732073686f756c64206e6f7420626520657175616c203078300060448201526064016102b1565b610d24600480546001019055565b6000610d2f60045490565b6040805160e0810182526001600160a01b0387811680835260208084018681528486018a8152600060608701818152336080890181815260a08a018e815260c08b018581528d8652600698899052948c90209a518b54908b166001600160a01b0319918216178c55965160018c0155945160028b0155915160038a018054918a1691871691909117905590516004808a018054929099169190951617909655905160058701555194909101805494151560ff199095169490941790935592516323b872dd60e01b81529182015230602482015260448101869052919250906323b872dd90606401600060405180830381600087803b158015610e3057600080fd5b505af1158015610e44573d6000803e3d6000fd5b505060408051868152600060208201819052338284015260608201879052608082015290518493506001600160a01b03881692507fc0949b7bee1a9850605ae4ddce98bc8465518f7638ede9269456ccbb5e0bd8139181900360a00190a3505060016000555050565b606060016000838152602001908152602001600020805480602002602001604051908101604052809291908181526020016000905b82821015610f3157600084815260209081902060408051808201909152908401546001600160a01b0381168252600160a01b90046001600160601b031681830152825260019092019101610ee2565b505050509050919050565b60005b81518110156110b55760006001600160a01b0316828281518110610f6557610f656113bc565b6020026020010151600001516001600160a01b03161415610fc85760405162461bcd60e51b815260206004820152601b60248201527f526563697069656e742073686f756c642062652070726573656e74000000000060448201526064016102b1565b818181518110610fda57610fda6113bc565b6020026020010151602001516001600160601b03166000141561103f5760405162461bcd60e51b815260206004820181905260248201527f526f79616c74792076616c75652073686f756c6420626520706f73697469766560448201526064016102b1565b60008381526001602052604090208251839083908110611061576110616113bc565b6020908102919091018101518254600181018455600093845292829020815191909201516001600160601b0316600160a01b026001600160a01b0390911617910155806110ad81611417565b915050610f3f565b506110c082826110c4565b5050565b7f3fa96d7b6bcbfe71ef171666d84db3cf52fa2d1c8afdb1cc8e486177f208b7df82826040516110f5929190611473565b60405180910390a15050565b6040805160e081018252600080825260208201819052918101829052606081018290526080810182905260a0810182905260c081019190915290565b60006020828403121561114f57600080fd5b81356001600160e01b03198116811461116757600080fd5b9392505050565b6001600160a01b038116811461118357600080fd5b50565b60008060006060848603121561119b57600080fd5b8335925060208401356111ad8161116e565b915060408401356001600160601b03811681146111c957600080fd5b809150509250925092565b602080825282518282018190526000919060409081850190868401855b8281101561125b57815180516001600160a01b039081168652878201518887015286820151878701526060808301518216908701526080808301519091169086015260a0808201519086015260c09081015115159085015260e090930192908501906001016111f1565b5091979650505050505050565b6000806040838503121561127b57600080fd5b50508035926020909101359150565b6000806040838503121561129d57600080fd5b82356112a88161116e565b946020939093013593505050565b6000806000606084860312156112cb57600080fd5b83356112d68161116e565b95602085013595506040909401359392505050565b6000602082840312156112fd57600080fd5b5035919050565b600081518084526020808501945080840160005b8381101561135157815180516001600160a01b031688528301516001600160601b03168388015260409096019590820190600101611318565b509495945050505050565b6020815260006111676020830184611304565b6020808252601f908201527f5265656e7472616e637947756172643a207265656e7472616e742063616c6c00604082015260600190565b634e487b7160e01b600052604160045260246000fd5b634e487b7160e01b600052603260045260246000fd5b634e487b7160e01b600052601160045260246000fd5b6000828210156113fa576113fa6113d2565b500390565b60008219821115611412576114126113d2565b500190565b600060001982141561142b5761142b6113d2565b5060010190565b600081600019048311821515161561144c5761144c6113d2565b500290565b60008261146e57634e487b7160e01b600052601260045260246000fd5b500490565b82815260406020820152600061148c6040830184611304565b94935050505056fea26469706673582212201c43532580a5ef5c1133fbf833c71eec12d8b32fb37286692e840f49268df3c464736f6c634300080a0033",
    "sourcePath": "/Users/scarnes/SimpliX/SimpliNew/contracts/NFTMarketPlace.sol",
    "compiler": {
        "name": "solc",
        "version": "0.8.10+commit.fc410830"
    },
    "functionHashes": {
        "createItemForSale(address,uint256,uint256)": "c7a5bc4e",
        "createMarketForSale(address,uint256)": "57e9b6cc",
        "getAllUnsoldItems()": "25135cbf",
        "getMyItemCreated()": "9e31e655",
        "getMyNFTPurchased()": "446269e6",
        "getRaribleV2Royalties(uint256)": "cad96cca",
        "gettheMarketFees()": "bca52442",
        "royalties(uint256,uint256)": "8924af74",
        "royaltyInfo(uint256,uint256)": "2a55205a",
        "setRoyalties(uint256,address,uint96)": "143094db",
        "supportsInterface(bytes4)": "01ffc9a7"
    },
    "gasEstimates": {
        "creation": {
            "codeDepositCost": "1064400",
            "executionCost": "69554",
            "totalCost": "1133954"
        },
        "external": {
            "createItemForSale(address,uint256,uint256)": "infinite",
            "createMarketForSale(address,uint256)": "infinite",
            "getAllUnsoldItems()": "infinite",
            "getMyItemCreated()": "infinite",
            "getMyNFTPurchased()": "infinite",
            "getRaribleV2Royalties(uint256)": "infinite",
            "gettheMarketFees()": "2346",
            "royalties(uint256,uint256)": "4804",
            "royaltyInfo(uint256,uint256)": "infinite",
            "setRoyalties(uint256,address,uint96)": "infinite",
            "supportsInterface(bytes4)": "infinite"
        },
        "internal": {
            "_baseURI()": "infinite"
        }
    }
}