{
  "contractName": "NFTMarketPlace",
  "abi": [
    {
      "inputs": [],
      "stateMutability": "nonpayable",
      "type": "constructor"
    },
    {
      "anonymous": false,
      "inputs": [
        {
          "indexed": true,
          "internalType": "address",
          "name": "nftContract",
          "type": "address"
        },
        {
          "indexed": true,
          "internalType": "uint256",
          "name": "id",
          "type": "uint256"
        },
        {
          "indexed": false,
          "internalType": "uint256",
          "name": "tokenId",
          "type": "uint256"
        },
        {
          "indexed": false,
          "internalType": "address",
          "name": "owner",
          "type": "address"
        },
        {
          "indexed": false,
          "internalType": "address",
          "name": "seller",
          "type": "address"
        },
        {
          "indexed": false,
          "internalType": "uint256",
          "name": "price",
          "type": "uint256"
        },
        {
          "indexed": false,
          "internalType": "bool",
          "name": "sold",
          "type": "bool"
        }
      ],
      "name": "NftMerketItemCreated",
      "type": "event"
    },
    {
      "anonymous": false,
      "inputs": [
        {
          "indexed": false,
          "internalType": "uint256",
          "name": "tokenId",
          "type": "uint256"
        },
        {
          "components": [
            {
              "internalType": "address payable",
              "name": "account",
              "type": "address"
            },
            {
              "internalType": "uint96",
              "name": "value",
              "type": "uint96"
            }
          ],
          "indexed": false,
          "internalType": "struct LibPart.Part[]",
          "name": "royalties",
          "type": "tuple[]"
        }
      ],
      "name": "RoyaltiesSet",
      "type": "event"
    },
    {
      "inputs": [
        {
          "internalType": "uint256",
          "name": "id",
          "type": "uint256"
        }
      ],
      "name": "getRaribleV2Royalties",
      "outputs": [
        {
          "components": [
            {
              "internalType": "address payable",
              "name": "account",
              "type": "address"
            },
            {
              "internalType": "uint96",
              "name": "value",
              "type": "uint96"
            }
          ],
          "internalType": "struct LibPart.Part[]",
          "name": "",
          "type": "tuple[]"
        }
      ],
      "stateMutability": "view",
      "type": "function",
      "constant": true
    },
    {
      "inputs": [
        {
          "internalType": "uint256",
          "name": "",
          "type": "uint256"
        },
        {
          "internalType": "uint256",
          "name": "",
          "type": "uint256"
        }
      ],
      "name": "royalties",
      "outputs": [
        {
          "internalType": "address payable",
          "name": "account",
          "type": "address"
        },
        {
          "internalType": "uint96",
          "name": "value",
          "type": "uint96"
        }
      ],
      "stateMutability": "view",
      "type": "function",
      "constant": true
    },
    {
      "inputs": [],
      "name": "gettheMarketFees",
      "outputs": [
        {
          "internalType": "uint256",
          "name": "",
          "type": "uint256"
        }
      ],
      "stateMutability": "view",
      "type": "function",
      "constant": true
    },
    {
      "inputs": [
        {
          "internalType": "address",
          "name": "nftContract",
          "type": "address"
        },
        {
          "internalType": "uint256",
          "name": "tokenId",
          "type": "uint256"
        },
        {
          "internalType": "uint256",
          "name": "price",
          "type": "uint256"
        }
      ],
      "name": "createItemForSale",
      "outputs": [],
      "stateMutability": "payable",
      "type": "function",
      "payable": true
    },
    {
      "inputs": [
        {
          "internalType": "uint256",
          "name": "_tokenId",
          "type": "uint256"
        },
        {
          "internalType": "address payable",
          "name": "_royaltiesReceipientAddress",
          "type": "address"
        },
        {
          "internalType": "uint96",
          "name": "_percentageBasisPoints",
          "type": "uint96"
        }
      ],
      "name": "setRoyalties",
      "outputs": [],
      "stateMutability": "nonpayable",
      "type": "function"
    },
    {
      "inputs": [
        {
          "internalType": "uint256",
          "name": "_tokenId",
          "type": "uint256"
        },
        {
          "internalType": "uint256",
          "name": "_salePrice",
          "type": "uint256"
        }
      ],
      "name": "royaltyInfo",
      "outputs": [
        {
          "internalType": "address",
          "name": "receiver",
          "type": "address"
        },
        {
          "internalType": "uint256",
          "name": "royaltyAmount",
          "type": "uint256"
        }
      ],
      "stateMutability": "view",
      "type": "function",
      "constant": true
    },
    {
      "inputs": [
        {
          "internalType": "bytes4",
          "name": "interfaceId",
          "type": "bytes4"
        }
      ],
      "name": "supportsInterface",
      "outputs": [
        {
          "internalType": "bool",
          "name": "",
          "type": "bool"
        }
      ],
      "stateMutability": "view",
      "type": "function",
      "constant": true
    },
    {
      "inputs": [
        {
          "internalType": "address",
          "name": "nftContract",
          "type": "address"
        },
        {
          "internalType": "uint256",
          "name": "nftItemId",
          "type": "uint256"
        }
      ],
      "name": "createMarketForSale",
      "outputs": [],
      "stateMutability": "payable",
      "type": "function",
      "payable": true
    },
    {
      "inputs": [],
      "name": "getMyItemCreated",
      "outputs": [
        {
          "components": [
            {
              "internalType": "address",
              "name": "nftContract",
              "type": "address"
            },
            {
              "internalType": "uint256",
              "name": "id",
              "type": "uint256"
            },
            {
              "internalType": "uint256",
              "name": "tokenId",
              "type": "uint256"
            },
            {
              "internalType": "address payable",
              "name": "owner",
              "type": "address"
            },
            {
              "internalType": "address payable",
              "name": "seller",
              "type": "address"
            },
            {
              "internalType": "uint256",
              "name": "price",
              "type": "uint256"
            },
            {
              "internalType": "bool",
              "name": "sold",
              "type": "bool"
            }
          ],
          "internalType": "struct NFTMarketPlace.NftMerketItem[]",
          "name": "",
          "type": "tuple[]"
        }
      ],
      "stateMutability": "view",
      "type": "function",
      "constant": true
    },
    {
      "inputs": [],
      "name": "getMyNFTPurchased",
      "outputs": [
        {
          "components": [
            {
              "internalType": "address",
              "name": "nftContract",
              "type": "address"
            },
            {
              "internalType": "uint256",
              "name": "id",
              "type": "uint256"
            },
            {
              "internalType": "uint256",
              "name": "tokenId",
              "type": "uint256"
            },
            {
              "internalType": "address payable",
              "name": "owner",
              "type": "address"
            },
            {
              "internalType": "address payable",
              "name": "seller",
              "type": "address"
            },
            {
              "internalType": "uint256",
              "name": "price",
              "type": "uint256"
            },
            {
              "internalType": "bool",
              "name": "sold",
              "type": "bool"
            }
          ],
          "internalType": "struct NFTMarketPlace.NftMerketItem[]",
          "name": "",
          "type": "tuple[]"
        }
      ],
      "stateMutability": "view",
      "type": "function",
      "constant": true
    },
    {
      "inputs": [],
      "name": "getAllUnsoldItems",
      "outputs": [
        {
          "components": [
            {
              "internalType": "address",
              "name": "nftContract",
              "type": "address"
            },
            {
              "internalType": "uint256",
              "name": "id",
              "type": "uint256"
            },
            {
              "internalType": "uint256",
              "name": "tokenId",
              "type": "uint256"
            },
            {
              "internalType": "address payable",
              "name": "owner",
              "type": "address"
            },
            {
              "internalType": "address payable",
              "name": "seller",
              "type": "address"
            },
            {
              "internalType": "uint256",
              "name": "price",
              "type": "uint256"
            },
            {
              "internalType": "bool",
              "name": "sold",
              "type": "bool"
            }
          ],
          "internalType": "struct NFTMarketPlace.NftMerketItem[]",
          "name": "",
          "type": "tuple[]"
        }
      ],
      "stateMutability": "view",
      "type": "function",
      "constant": true
    }
  ],
  "bytecode": "0x6080604052662386f26fc1000060025534801561001b57600080fd5b506001600055600380546001600160a01b031916331790556114bc806100426000396000f3fe60806040526004361061009c5760003560e01c806357e9b6cc1161006457806357e9b6cc1461016e5780638924af74146101815780639e31e655146101c8578063bca52442146101dd578063c7a5bc4e146101fb578063cad96cca1461020e57600080fd5b806301ffc9a7146100a1578063143094db146100d657806325135cbf146100f85780632a55205a1461011a578063446269e614610159575b600080fd5b3480156100ad57600080fd5b506100c16100bc366004611131565b61023b565b60405190151581526020015b60405180910390f35b3480156100e257600080fd5b506100f66100f136600461117a565b61028c565b005b34801561010457600080fd5b5061010d610375565b6040516100cd91906111c8565b34801561012657600080fd5b5061013a61013536600461125c565b610500565b604080516001600160a01b0390931683526020830191909152016100cd565b34801561016557600080fd5b5061010d610606565b6100f661017c36600461127e565b6107ce565b34801561018d57600080fd5b506101a161019c36600461125c565b610990565b604080516001600160a01b0390931683526001600160601b039091166020830152016100cd565b3480156101d457600080fd5b5061010d6109d9565b3480156101e957600080fd5b506002546040519081526020016100cd565b6100f66102093660046112aa565b610ba1565b34801561021a57600080fd5b5061022e6102293660046112df565b610ea3565b6040516100cd9190611350565b6000631a93499b60e11b6001600160e01b031983160161025d57506001919050565b636ad56fd360e11b6001600160e01b031983160161027d57506001919050565b6102868261023b565b92915050565b6002600054036102b75760405162461bcd60e51b81526004016102ae90611363565b60405180910390fd5b6002600090815560408051600180825281830190925290816020015b60408051808201909152600080825260208201528152602001906001900390816102d35790505090508181600081518110610310576103106113b0565b6020026020010151602001906001600160601b031690816001600160601b0316815250508281600081518110610348576103486113b0565b60209081029190910101516001600160a01b03909116905261036a8482610f32565b505060016000555050565b6060600061038260045490565b9050600061038f60055490565b60045461039c91906113dc565b90506000808267ffffffffffffffff8111156103ba576103ba61139a565b6040519080825280602002602001820160405280156103f357816020015b6103e06110f5565b8152602001906001900390816103d85790505b50905060005b848110156104f75760006006816104118460016113f3565b81526020810191909152604001600020600301546001600160a01b0316036104e55760006104408260016113f3565b600081815260066020818152604092839020835160e08101855281546001600160a01b03908116825260018301549382019390935260028201549481019490945260038101548216606085015260048101549091166080840152600581015460a08401529081015460ff16151560c08301528551929350918590879081106104ca576104ca6113b0565b60209081029190910101526104e06001866113f3565b945050505b806104ef8161140b565b9150506103f9565b50949350505050565b6000828152600160209081526040808320805482518185028101850190935280835284938493929190849084015b8282101561057d57600084815260209081902060408051808201909152908401546001600160a01b0381168252600160a01b90046001600160601b03168183015282526001909201910161052e565b5050505090506000815111156105f657806000815181106105a0576105a06113b0565b602002602001015160000151612710826000815181106105c2576105c26113b0565b6020026020010151602001516001600160601b0316866105e29190611424565b6105ec9190611443565b92509250506105ff565b60008092509250505b9250929050565b6060600061061360045490565b905060008060005b838110156106755733600660006106338460016113f3565b81526020810191909152604001600020600301546001600160a01b031603610663576106606001846113f3565b92505b8061066d8161140b565b91505061061b565b5060008267ffffffffffffffff8111156106915761069161139a565b6040519080825280602002602001820160405280156106ca57816020015b6106b76110f5565b8152602001906001900390816106af5790505b50905060005b848110156104f75733600660006106e88460016113f3565b81526020810191909152604001600020600301546001600160a01b0316036107bc5760006107178260016113f3565b600081815260066020818152604092839020835160e08101855281546001600160a01b03908116825260018301549382019390935260028201549481019490945260038101548216606085015260048101549091166080840152600581015460a08401529081015460ff16151560c08301528551929350918590879081106107a1576107a16113b0565b60209081029190910101526107b76001866113f3565b945050505b806107c68161140b565b9150506106d0565b6002600054036107f05760405162461bcd60e51b81526004016102ae90611363565b60026000818155828152600660205260409020600581015491015434821461085a5760405162461bcd60e51b815260206004820152601c60248201527f73686f756c642062757920746865207072696365206f66206974656d0000000060448201526064016102ae565b6000838152600660205260408082206004015490516001600160a01b03909116913480156108fc02929091818181858888f193505050501580156108a2573d6000803e3d6000fd5b506040516323b872dd60e01b8152306004820152336024820152604481018290526001600160a01b038516906323b872dd90606401600060405180830381600087803b1580156108f157600080fd5b505af1158015610905573d6000803e3d6000fd5b50505060008481526006602081905260409091206003810180546001600160a01b0319163317905501805460ff1916600117905550610948600580546001019055565b6003546002546040516001600160a01b039092169181156108fc0291906000818181858888f19350505050158015610984573d6000803e3d6000fd5b50506001600055505050565b600160205281600052604060002081815481106109ac57600080fd5b6000918252602090912001546001600160a01b0381169250600160a01b90046001600160601b0316905082565b606060006109e660045490565b905060008060005b83811015610a48573360066000610a068460016113f3565b81526020810191909152604001600020600401546001600160a01b031603610a3657610a336001846113f3565b92505b80610a408161140b565b9150506109ee565b5060008267ffffffffffffffff811115610a6457610a6461139a565b604051908082528060200260200182016040528015610a9d57816020015b610a8a6110f5565b815260200190600190039081610a825790505b50905060005b848110156104f7573360066000610abb8460016113f3565b81526020810191909152604001600020600401546001600160a01b031603610b8f576000610aea8260016113f3565b600081815260066020818152604092839020835160e08101855281546001600160a01b03908116825260018301549382019390935260028201549481019490945260038101548216606085015260048101549091166080840152600581015460a08401529081015460ff16151560c0830152855192935091859087908110610b7457610b746113b0565b6020908102919091010152610b8a6001866113f3565b945050505b80610b998161140b565b915050610aa3565b600260005403610bc35760405162461bcd60e51b81526004016102ae90611363565b600260005580610c155760405162461bcd60e51b815260206004820152601a60248201527f50726963652073686f756c64206265206d6f72655468616e203100000000000060448201526064016102ae565b60008211610c655760405162461bcd60e51b815260206004820152601d60248201527f746f6b656e2049642073686f756c64206265206d6f72655468616e203100000060448201526064016102ae565b6002543414610cb65760405162461bcd60e51b815260206004820152601e60248201527f546865204d61726b6574204665657320697320302e303130204574686572000060448201526064016102ae565b6001600160a01b038316610d0c5760405162461bcd60e51b815260206004820152601f60248201527f616464726573732073686f756c64206e6f7420626520657175616c203078300060448201526064016102ae565b610d1a600480546001019055565b6000610d2560045490565b6040805160e0810182526001600160a01b0387811680835260208084018681528486018a8152600060608701818152336080890181815260a08a018e815260c08b018581528d8652600698899052948c90209a518b54908b166001600160a01b0319918216178c55965160018c0155945160028b0155915160038a018054918a1691871691909117905590516004808a018054929099169190951617909655905160058701555194909101805494151560ff199095169490941790935592516323b872dd60e01b81529182015230602482015260448101869052919250906323b872dd90606401600060405180830381600087803b158015610e2657600080fd5b505af1158015610e3a573d6000803e3d6000fd5b505060408051868152600060208201819052338284015260608201879052608082015290518493506001600160a01b03881692507fc0949b7bee1a9850605ae4ddce98bc8465518f7638ede9269456ccbb5e0bd8139181900360a00190a3505060016000555050565b606060016000838152602001908152602001600020805480602002602001604051908101604052809291908181526020016000905b82821015610f2757600084815260209081902060408051808201909152908401546001600160a01b0381168252600160a01b90046001600160601b031681830152825260019092019101610ed8565b505050509050919050565b60005b81518110156110a95760006001600160a01b0316828281518110610f5b57610f5b6113b0565b6020026020010151600001516001600160a01b031603610fbd5760405162461bcd60e51b815260206004820152601b60248201527f526563697069656e742073686f756c642062652070726573656e74000000000060448201526064016102ae565b818181518110610fcf57610fcf6113b0565b6020026020010151602001516001600160601b03166000036110335760405162461bcd60e51b815260206004820181905260248201527f526f79616c74792076616c75652073686f756c6420626520706f73697469766560448201526064016102ae565b60008381526001602052604090208251839083908110611055576110556113b0565b6020908102919091018101518254600181018455600093845292829020815191909201516001600160601b0316600160a01b026001600160a01b0390911617910155806110a18161140b565b915050610f35565b506110b482826110b8565b5050565b7f3fa96d7b6bcbfe71ef171666d84db3cf52fa2d1c8afdb1cc8e486177f208b7df82826040516110e9929190611465565b60405180910390a15050565b6040805160e081018252600080825260208201819052918101829052606081018290526080810182905260a0810182905260c081019190915290565b60006020828403121561114357600080fd5b81356001600160e01b03198116811461115b57600080fd5b9392505050565b6001600160a01b038116811461117757600080fd5b50565b60008060006060848603121561118f57600080fd5b8335925060208401356111a181611162565b915060408401356001600160601b03811681146111bd57600080fd5b809150509250925092565b602080825282518282018190526000919060409081850190868401855b8281101561124f57815180516001600160a01b039081168652878201518887015286820151878701526060808301518216908701526080808301519091169086015260a0808201519086015260c09081015115159085015260e090930192908501906001016111e5565b5091979650505050505050565b6000806040838503121561126f57600080fd5b50508035926020909101359150565b6000806040838503121561129157600080fd5b823561129c81611162565b946020939093013593505050565b6000806000606084860312156112bf57600080fd5b83356112ca81611162565b95602085013595506040909401359392505050565b6000602082840312156112f157600080fd5b5035919050565b600081518084526020808501945080840160005b8381101561134557815180516001600160a01b031688528301516001600160601b0316838801526040909601959082019060010161130c565b509495945050505050565b60208152600061115b60208301846112f8565b6020808252601f908201527f5265656e7472616e637947756172643a207265656e7472616e742063616c6c00604082015260600190565b634e487b7160e01b600052604160045260246000fd5b634e487b7160e01b600052603260045260246000fd5b634e487b7160e01b600052601160045260246000fd5b6000828210156113ee576113ee6113c6565b500390565b60008219821115611406576114066113c6565b500190565b60006001820161141d5761141d6113c6565b5060010190565b600081600019048311821515161561143e5761143e6113c6565b500290565b60008261146057634e487b7160e01b600052601260045260246000fd5b500490565b82815260406020820152600061147e60408301846112f8565b94935050505056fea2646970667358221220fbf4e36fae1c257770f1e6f827a1ba05889fca1166262db63e881400b56b397a64736f6c634300080e0033",
  "immutableReferences": {},
  "source": "// SPDX-License-Identifier: MIT\npragma solidity >=0.4.22 <0.9.0;\n\n//import \"@openzeppelin/contracts/access/Ownable.sol\";\nimport \"@openzeppelin/contracts/utils/Counters.sol\";\nimport \"@openzeppelin/contracts/token/ERC721/ERC721.sol\";\nimport \"@openzeppelin/contracts/security/ReentrancyGuard.sol\";\nimport \"../contracts/impl/RoyaltiesV2Impl.sol\";\nimport \"../contracts/LibPart.sol\";\nimport \"../contracts/LibRoyaltiesV2.sol\";\n\n\ncontract NFTMarketPlace is ReentrancyGuard, RoyaltiesV2Impl {\n    uint256   marketFees = 0.010 ether;\n    address payable owner;\n\n      using Counters for Counters.Counter;\n     Counters.Counter private itemId;\n    Counters.Counter private itemsSold;\n\n    bytes4 private constant _INTERFACE_ID_ERC2981 = 0x2a55205a;\n     constructor(){\n         owner = payable(msg.sender);\n     }\n\n    struct NftMerketItem{\n        address nftContract;\n        uint256 id;\n        uint256 tokenId;\n        address payable owner;\n        address  payable seller;\n        uint256 price;\n    //   uint256 royaltyInfo(_tokenId, _salePrice);;\n        bool sold;\n\n    }\n\n        event NftMerketItemCreated(\n        address  indexed nftContract,\n        uint256 indexed id,\n        uint256 tokenId,\n        address  owner,\n        address  seller,\n        uint256 price,\n      //  uint256 royalties,\n        bool sold\n        );\n    \n    function gettheMarketFees()public view returns(uint256){\n        return marketFees;\n    }\n\n///////////////////////////////////\n     mapping(uint256=>NftMerketItem) private idForMarketItem;\n///////////////////////////////////\n\n    function createItemForSale(address nftContract,uint256 tokenId,uint256 price)public payable nonReentrant {\n        require(price >0,\"Price should be moreThan 1\");\n        require(tokenId >0,\"token Id should be moreThan 1\");\n        require(msg.value == marketFees,\"The Market Fees is 0.010 Ether\");\n        require(nftContract != address(0),\"address should not be equal 0x0\");\n    //    require(royalties >0, \"The royalty should be more that 0\");\n        itemId.increment();\n        uint256 id = itemId.current();\n\n        idForMarketItem[id]= NftMerketItem(\n            nftContract,\n            id,\n            tokenId,\n            payable (address (0)),\n            payable(msg.sender),\n            price,\n            false\n        );\n\n        IERC721(nftContract).transferFrom(msg.sender, address(this), tokenId);\n\n        emit NftMerketItemCreated(nftContract, id, tokenId, address(0), msg.sender, price, false);\n\n    }/////////// ROYALTIES /////////\nfunction setRoyalties(uint _tokenId, address payable _royaltiesReceipientAddress, uint96 _percentageBasisPoints) public nonReentrant {\n    LibPart.Part[] memory _royalties = new LibPart.Part[](1);\n    _royalties[0].value = _percentageBasisPoints;\n    _royalties[0].account = _royaltiesReceipientAddress;\n    _saveRoyalties(_tokenId, _royalties);\n}\n\nfunction royaltyInfo(uint256 _tokenId, uint256 _salePrice) external view returns (address receiver, uint256 royaltyAmount) {\n    LibPart.Part[] memory _royalties = royalties[_tokenId];\n    if(_royalties.length > 0) {\n        return (_royalties[0].account, (_salePrice * _royalties[0].value)/10000);\n    }\n    return (address(0), 0);\n\n}\nfunction supportsInterface(bytes4 interfaceId) public view returns (bool) {\n    if(interfaceId == LibRoyaltiesV2._INTERFACE_ID_ROYALTIES) {\n        return true;\n    }\n    if(interfaceId == _INTERFACE_ID_ERC2981) {\n        return true;\n    }\n    return NFTMarketPlace.supportsInterface(interfaceId);\n} \nfunction _baseURI() internal view returns (string memory) {\n    return \"http://localhost:3000/metadata/\";\n}\n/////////////////////////////////////////\n    // Create Maket\n    function createMarketForSale(address nftContract,uint256 nftItemId) public payable nonReentrant {\n     uint256 price = idForMarketItem[nftItemId].price;\n     uint256 tokenId = idForMarketItem[nftItemId].tokenId;\n   //  uint256 royalties = idForMarketItem[nftItemId].royalties;\n\n     require(msg.value == price,\"should buy the price of item\");\n      idForMarketItem[nftItemId].seller.transfer(msg.value);\n      IERC721(nftContract).transferFrom(address(this), msg.sender, tokenId); //buy\n      idForMarketItem[nftItemId].owner = payable(msg.sender);\n      idForMarketItem[nftItemId].sold =  true;\n      itemsSold.increment();\n    payable(owner).transfer(marketFees);\n\n    }\n\n    //My items => sold,not sold,buy\n\nfunction getMyItemCreated() public view returns(NftMerketItem[] memory){\nuint256 totalItemCount = itemId.current(); \nuint myItemCount=0;//10\nuint myCurrentIndex =0;\n\nfor(uint i = 0;i<totalItemCount;i++){\n    if(idForMarketItem[i+1].seller == msg.sender){\n        myItemCount+=1;\n\n    }\n}\nNftMerketItem [] memory nftItems = new NftMerketItem[](myItemCount); //list[3]\nfor(uint i = 0;i<totalItemCount;i++){\n    if(idForMarketItem[i+1].seller==msg.sender){      //[1,2,3,4,5]\n      uint currentId = i+1;\n        NftMerketItem storage  currentItem = idForMarketItem[currentId];\n        nftItems[myCurrentIndex] = currentItem;\n        myCurrentIndex +=1;\n        \n    }\n}\n\n\nreturn nftItems;\n\n}\n\n\n//Create My purchased NFT Items\n\nfunction getMyNFTPurchased() public view returns(NftMerketItem[] memory){\nuint256 totalItemCount = itemId.current(); \nuint myItemCount=0;//10\nuint myCurrentIndex =0;\n\nfor(uint i = 0;i<totalItemCount;i++){\n    if(idForMarketItem[i + 1 ].owner == msg.sender){\n        myItemCount+=1;\n\n    }\n}\n\nNftMerketItem [] memory nftItems = new NftMerketItem[](myItemCount); //list[3]\nfor(uint i = 0;i<totalItemCount;i++){\n    if(idForMarketItem[i+1].owner== msg.sender){      //[1,2,3,4,5]\n      uint currentId = i+1;\n        NftMerketItem storage  currentItem = idForMarketItem[currentId];\n        nftItems[myCurrentIndex] = currentItem;\n        myCurrentIndex +=1;\n        \n    }\n}\n\nreturn nftItems;\n\n}\n//Fetch  all unsold nft items\nfunction getAllUnsoldItems()public view returns (NftMerketItem[] memory){\n\nuint256 totalItemCount = itemId.current(); \nuint myItemCount= itemId.current() - itemsSold.current();\nuint myCurrentIndex =0;\n\n\n\nNftMerketItem [] memory nftItems = new NftMerketItem[](myItemCount); //list[3]\nfor(uint i = 0;i<totalItemCount;i++){\n    if(idForMarketItem[i+1].owner== address(0)){      //[1,2,3,4,5]\n      uint currentId = i+1;\n        NftMerketItem storage  currentItem = idForMarketItem[currentId];\n        nftItems[myCurrentIndex] = currentItem;\n        myCurrentIndex +=1;\n        \n    }\n}\n\n\nreturn nftItems;\n\n\n}\n}",
  "sourcePath": "/Users/scarnes/SimpliX/SimpliNew/contracts/NFTMarketPlace.sol",
  "compiler": {
    "name": "solc",
    "version": "0.8.14+commit.80d49f37.Emscripten.clang"
  },
  "schemaVersion": "3.4.7",
  "updatedAt": "2022-06-05T19:12:05.398Z",
  "networkType": "ethereum",
  "devdoc": {
    "kind": "dev",
    "methods": {},
    "version": 1
  },
  "userdoc": {
    "kind": "user",
    "methods": {},
    "version": 1
  }
}